{
  "_format": "hh-sol-artifact-1",
  "contractName": "AutomobileSupplyChain",
  "sourceName": "contracts/AutomobileSupplyChain.sol",
  "abi": [
    {
      "anonymous": false,
      "inputs": [
        {
          "indexed": false,
          "internalType": "uint256",
          "name": "orderId",
          "type": "uint256"
        },
        {
          "indexed": false,
          "internalType": "uint256",
          "name": "amount",
          "type": "uint256"
        }
      ],
      "name": "FundsDeposited",
      "type": "event"
    },
    {
      "anonymous": false,
      "inputs": [
        {
          "indexed": false,
          "internalType": "uint256",
          "name": "orderId",
          "type": "uint256"
        }
      ],
      "name": "OrderCancelled",
      "type": "event"
    },
    {
      "anonymous": false,
      "inputs": [
        {
          "indexed": false,
          "internalType": "uint256",
          "name": "orderId",
          "type": "uint256"
        },
        {
          "indexed": true,
          "internalType": "address",
          "name": "buyer",
          "type": "address"
        },
        {
          "indexed": true,
          "internalType": "address",
          "name": "supplier",
          "type": "address"
        },
        {
          "indexed": false,
          "internalType": "uint256",
          "name": "amount",
          "type": "uint256"
        },
        {
          "indexed": false,
          "internalType": "string",
          "name": "vin",
          "type": "string"
        }
      ],
      "name": "OrderCreated",
      "type": "event"
    },
    {
      "anonymous": false,
      "inputs": [
        {
          "indexed": false,
          "internalType": "uint256",
          "name": "orderId",
          "type": "uint256"
        }
      ],
      "name": "OrderDelivered",
      "type": "event"
    },
    {
      "anonymous": false,
      "inputs": [
        {
          "indexed": false,
          "internalType": "uint256",
          "name": "orderId",
          "type": "uint256"
        },
        {
          "indexed": true,
          "internalType": "address",
          "name": "supplier",
          "type": "address"
        }
      ],
      "name": "OrderShipped",
      "type": "event"
    },
    {
      "anonymous": false,
      "inputs": [
        {
          "indexed": false,
          "internalType": "uint256",
          "name": "orderId",
          "type": "uint256"
        },
        {
          "indexed": true,
          "internalType": "address",
          "name": "supplier",
          "type": "address"
        },
        {
          "indexed": false,
          "internalType": "uint256",
          "name": "amount",
          "type": "uint256"
        }
      ],
      "name": "PaymentReleased",
      "type": "event"
    },
    {
      "inputs": [
        {
          "internalType": "uint256",
          "name": "_orderId",
          "type": "uint256"
        }
      ],
      "name": "cancelOrder",
      "outputs": [],
      "stateMutability": "nonpayable",
      "type": "function"
    },
    {
      "inputs": [
        {
          "internalType": "uint256",
          "name": "_orderId",
          "type": "uint256"
        }
      ],
      "name": "confirmDelivery",
      "outputs": [],
      "stateMutability": "nonpayable",
      "type": "function"
    },
    {
      "inputs": [
        {
          "internalType": "address payable",
          "name": "_supplier",
          "type": "address"
        },
        {
          "internalType": "uint256",
          "name": "_amount",
          "type": "uint256"
        },
        {
          "internalType": "string",
          "name": "_vin",
          "type": "string"
        },
        {
          "internalType": "string",
          "name": "_isoTs16949Doc",
          "type": "string"
        }
      ],
      "name": "createOrder",
      "outputs": [
        {
          "internalType": "uint256",
          "name": "",
          "type": "uint256"
        }
      ],
      "stateMutability": "nonpayable",
      "type": "function"
    },
    {
      "inputs": [
        {
          "internalType": "uint256",
          "name": "_orderId",
          "type": "uint256"
        }
      ],
      "name": "depositFunds",
      "outputs": [],
      "stateMutability": "payable",
      "type": "function"
    },
    {
      "inputs": [
        {
          "internalType": "uint256",
          "name": "_orderId",
          "type": "uint256"
        }
      ],
      "name": "markShipped",
      "outputs": [],
      "stateMutability": "nonpayable",
      "type": "function"
    },
    {
      "inputs": [],
      "name": "nextOrderId",
      "outputs": [
        {
          "internalType": "uint256",
          "name": "",
          "type": "uint256"
        }
      ],
      "stateMutability": "view",
      "type": "function"
    },
    {
      "inputs": [
        {
          "internalType": "uint256",
          "name": "",
          "type": "uint256"
        }
      ],
      "name": "orders",
      "outputs": [
        {
          "internalType": "uint256",
          "name": "orderId",
          "type": "uint256"
        },
        {
          "internalType": "address payable",
          "name": "buyer",
          "type": "address"
        },
        {
          "internalType": "address payable",
          "name": "supplier",
          "type": "address"
        },
        {
          "internalType": "uint256",
          "name": "amount",
          "type": "uint256"
        },
        {
          "internalType": "enum AutomobileSupplyChain.OrderState",
          "name": "state",
          "type": "uint8"
        },
        {
          "internalType": "string",
          "name": "vin",
          "type": "string"
        },
        {
          "internalType": "string",
          "name": "isoTs16949Doc",
          "type": "string"
        }
      ],
      "stateMutability": "view",
      "type": "function"
    },
    {
      "stateMutability": "payable",
      "type": "receive"
    }
  ],
  "bytecode": "0x608060405234801561001057600080fd5b50611115806100206000396000f3fe6080604052600436106100745760003560e01c8063a85c38ef1161004e578063a85c38ef146100de578063a919564e14610111578063eed90d6b14610131578063fd84cb971461015157600080fd5b80632a58b330146100805780633b76594d146100a9578063514fcac7146100be57600080fd5b3661007b57005b600080fd5b34801561008c57600080fd5b5061009660015481565b6040519081526020015b60405180910390f35b6100bc6100b7366004610cf8565b610171565b005b3480156100ca57600080fd5b506100bc6100d9366004610cf8565b610315565b3480156100ea57600080fd5b506100fe6100f9366004610cf8565b610564565b6040516100a09796959493929190610d6d565b34801561011d57600080fd5b5061009661012c366004610e8b565b6106c3565b34801561013d57600080fd5b506100bc61014c366004610cf8565b6108b4565b34801561015d57600080fd5b506100bc61016c366004610cf8565b6109fc565b6000818152602081905260409020805482146101a85760405162461bcd60e51b815260040161019f90610f17565b60405180910390fd5b60018101546001600160a01b031633146102045760405162461bcd60e51b815260206004820152601c60248201527f4f6e6c792062757965722063616e206465706f7369742066756e647300000000604482015260640161019f565b6000600482015460ff16600581111561021f5761021f610d11565b1461026c5760405162461bcd60e51b815260206004820152601f60248201527f43616e6e6f74206465706f73697420696e2063757272656e7420737461746500604482015260640161019f565b806003015434146102ca5760405162461bcd60e51b815260206004820152602260248201527f53656e742076616c7565206d757374206d61746368206f7264657220616d6f756044820152611b9d60f21b606482015260840161019f565b60048101805460ff19166001179055604080518381523460208201527f26679fa1f3868c950e9362f1106cf73f3318de0280e0411a3c68e4b463eadd4f910160405180910390a15050565b6000818152602081905260409020805482146103435760405162461bcd60e51b815260040161019f90610f17565b60018101546001600160a01b031633148061036a575060028101546001600160a01b031633145b6103c05760405162461bcd60e51b815260206004820152602160248201527f4f6e6c79206275796572206f7220737570706c6965722063616e2063616e63656044820152601b60fa1b606482015260840161019f565b6000600482015460ff1660058111156103db576103db610d11565b14806103ff57506001600482015460ff1660058111156103fd576103fd610d11565b145b61044b5760405162461bcd60e51b815260206004820152601c60248201527f43616e6e6f742063616e63656c206166746572207368697070696e6700000000604482015260640161019f565b60048101805460ff191660051790556040518281527f61b9399f2f0f32ca39ce8d7be32caed5ec22fe07a6daba3a467ed479ec6065829060200160405180910390a16001600482015460ff1660058111156104a8576104a8610d11565b1480156104b9575060008160030154115b1561056057600181015460038201546040516000926001600160a01b031691908381818185875af1925050503d8060008114610511576040519150601f19603f3d011682016040523d82523d6000602084013e610516565b606091505b50509050806105575760405162461bcd60e51b815260206004820152600d60248201526c1499599d5b990819985a5b1959609a1b604482015260640161019f565b50600060038201555b5050565b60006020819052908152604090208054600182015460028301546003840154600485015460058601805495966001600160a01b03958616969590941694929360ff909216926105b290610f45565b80601f01602080910402602001604051908101604052809291908181526020018280546105de90610f45565b801561062b5780601f106106005761010080835404028352916020019161062b565b820191906000526020600020905b81548152906001019060200180831161060e57829003601f168201915b50505050509080600601805461064090610f45565b80601f016020809104026020016040519081016040528092919081815260200182805461066c90610f45565b80156106b95780601f1061068e576101008083540402835291602001916106b9565b820191906000526020600020905b81548152906001019060200180831161069c57829003601f168201915b5050505050905087565b60006001600160a01b03851661071b5760405162461bcd60e51b815260206004820152601860248201527f496e76616c696420737570706c69657220616464726573730000000000000000604482015260640161019f565b600084116107605760405162461bcd60e51b81526020600482015260126024820152710416d6f756e74206d757374206265203e20360741b604482015260640161019f565b6001805490600061077083610f7f565b90915550506040805160e081018252600180548083523360208085019182526001600160a01b038b8116868801908152606087018c815260006080890181815260a08a018e905260c08a018d9052968152938490529790922086518155925183860180546001600160a01b03199081169284169290921790559151600284018054909316911617905593516003850155516004840180549394939192909160ff19169083600581111561082557610825610d11565b021790555060a0820151600582019061083e9082610ff7565b5060c082015160068201906108539082610ff7565b50905050846001600160a01b0316336001600160a01b03167f8a5442842accf64d1d239f8d2d0d32444aca25253e6b134bcf8e47207209eb1460015487876040516108a0939291906110b7565b60405180910390a350600154949350505050565b6000818152602081905260409020805482146108e25760405162461bcd60e51b815260040161019f90610f17565b60028101546001600160a01b0316331461093e5760405162461bcd60e51b815260206004820152601e60248201527f4f6e6c7920737570706c6965722063616e206d61726b20736869707065640000604482015260640161019f565b6001600482015460ff16600581111561095957610959610d11565b146109b45760405162461bcd60e51b815260206004820152602560248201527f4f72646572206d75737420686176652066756e6473206465706f736974656420604482015264199a5c9cdd60da1b606482015260840161019f565b60048101805460ff1916600217905560405182815233907f1a66e0c7d5d7422838f4f916462f11609026cbe8fb5d43ec23c45d04ddfcfca99060200160405180910390a25050565b600081815260208190526040902080548214610a2a5760405162461bcd60e51b815260040161019f90610f17565b60018101546001600160a01b03163314610a865760405162461bcd60e51b815260206004820152601f60248201527f4f6e6c792062757965722063616e20636f6e6669726d2064656c697665727900604482015260640161019f565b6002600482015460ff166005811115610aa157610aa1610d11565b14610aee5760405162461bcd60e51b815260206004820152601e60248201527f4f72646572206d75737420626520696e20536869707065642073746174650000604482015260640161019f565b60048101805460ff191660031790556040518281527fe21fe02c1589242b30be2057f54fd54b7ddc463695d19ffdb54f9ebb0584f24a9060200160405180910390a16105608260008181526020819052604090206003600482015460ff166005811115610b5d57610b5d610d11565b14610baa5760405162461bcd60e51b815260206004820152601760248201527f4f72646572206e6f742064656c69766572656420796574000000000000000000604482015260640161019f565b6000816003015411610bef5760405162461bcd60e51b815260206004820152600e60248201526d4e6f207061796d656e742064756560901b604482015260640161019f565b6004818101805460ff19169091179055600281015460038201546040805185815260208101929092526001600160a01b03909216917f21d71db5be59bb9fa133895586b7404307dd33fb93b16db09dc6f1d9d7d231b0910160405180910390a2600281015460038201546040516000926001600160a01b031691908381818185875af1925050503d8060008114610ca2576040519150601f19603f3d011682016040523d82523d6000602084013e610ca7565b606091505b50509050806105575760405162461bcd60e51b815260206004820152601760248201527f5061796d656e74207472616e73666572206661696c6564000000000000000000604482015260640161019f565b600060208284031215610d0a57600080fd5b5035919050565b634e487b7160e01b600052602160045260246000fd5b6000815180845260005b81811015610d4d57602081850181015186830182015201610d31565b506000602082860101526020601f19601f83011685010191505092915050565b8781526001600160a01b0387811660208301528616604082015260608101859052600060068510610dae57634e487b7160e01b600052602160045260246000fd5b84608083015260e060a0830152610dc860e0830185610d27565b82810360c0840152610dda8185610d27565b9a9950505050505050505050565b634e487b7160e01b600052604160045260246000fd5b600082601f830112610e0f57600080fd5b813567ffffffffffffffff80821115610e2a57610e2a610de8565b604051601f8301601f19908116603f01168101908282118183101715610e5257610e52610de8565b81604052838152866020858801011115610e6b57600080fd5b836020870160208301376000602085830101528094505050505092915050565b60008060008060808587031215610ea157600080fd5b84356001600160a01b0381168114610eb857600080fd5b935060208501359250604085013567ffffffffffffffff80821115610edc57600080fd5b610ee888838901610dfe565b93506060870135915080821115610efe57600080fd5b50610f0b87828801610dfe565b91505092959194509250565b60208082526014908201527313dc99195c88191bd95cc81b9bdd08195e1a5cdd60621b604082015260600190565b600181811c90821680610f5957607f821691505b602082108103610f7957634e487b7160e01b600052602260045260246000fd5b50919050565b600060018201610f9f57634e487b7160e01b600052601160045260246000fd5b5060010190565b601f821115610ff2576000816000526020600020601f850160051c81016020861015610fcf5750805b601f850160051c820191505b81811015610fee57828155600101610fdb565b5050505b505050565b815167ffffffffffffffff81111561101157611011610de8565b6110258161101f8454610f45565b84610fa6565b602080601f83116001811461105a57600084156110425750858301515b600019600386901b1c1916600185901b178555610fee565b600085815260208120601f198616915b828110156110895788860151825594840194600190910190840161106a565b50858210156110a75787850151600019600388901b60f8161c191681555b5050505050600190811b01905550565b8381528260208201526060604082015260006110d66060830184610d27565b9594505050505056fea2646970667358221220a495b5a7e26dde3d0246f4adb1359bb9facf9675d80e832329d8208226572cf864736f6c63430008180033",
  "linkReferences": {},
  "deployedLinkReferences": {}
}